{
  "contractName": "DataEscrow",
  "abi": [
    {
      "anonymous": false,
      "inputs": [
        {
          "indexed": false,
          "internalType": "uint256",
          "name": "_reqBlockID",
          "type": "uint256"
        },
        {
          "indexed": false,
          "internalType": "bool",
          "name": "_isSuccess",
          "type": "bool"
        }
      ],
      "name": "AddAccess",
      "type": "event"
    },
    {
      "anonymous": false,
      "inputs": [
        {
          "indexed": true,
          "internalType": "bytes32",
          "name": "_dataID",
          "type": "bytes32"
        },
        {
          "indexed": false,
          "internalType": "bool",
          "name": "success",
          "type": "bool"
        }
      ],
      "name": "AddData",
      "type": "event"
    },
    {
      "anonymous": false,
      "inputs": [
        {
          "indexed": false,
          "internalType": "uint256",
          "name": "_assertionBlockID",
          "type": "uint256"
        },
        {
          "indexed": false,
          "internalType": "bool",
          "name": "_isSuccess",
          "type": "bool"
        }
      ],
      "name": "AttestAccessLog",
      "type": "event"
    },
    {
      "constant": false,
      "inputs": [
        {
          "internalType": "bytes32",
          "name": "_dataID",
          "type": "bytes32"
        },
        {
          "internalType": "bytes32",
          "name": "_ownerID",
          "type": "bytes32"
        },
        {
          "internalType": "bytes32",
          "name": "_pkData",
          "type": "bytes32"
        },
        {
          "internalType": "bytes32",
          "name": "_quoteRA",
          "type": "bytes32"
        },
        {
          "internalType": "bytes32[]",
          "name": "_authorizedList",
          "type": "bytes32[]"
        }
      ],
      "name": "addDataEntry",
      "outputs": [
        {
          "internalType": "bool",
          "name": "success",
          "type": "bool"
        }
      ],
      "payable": false,
      "stateMutability": "nonpayable",
      "type": "function"
    },
    {
      "constant": false,
      "inputs": [
        {
          "internalType": "bytes32",
          "name": "_requesterID",
          "type": "bytes32"
        },
        {
          "internalType": "bytes32",
          "name": "_dataID",
          "type": "bytes32"
        },
        {
          "internalType": "bytes32",
          "name": "_JWT",
          "type": "bytes32"
        },
        {
          "internalType": "bytes32",
          "name": "_reqWalletPK",
          "type": "bytes32"
        }
      ],
      "name": "addAccessRequest",
      "outputs": [
        {
          "internalType": "uint256",
          "name": "_reqBlockID",
          "type": "uint256"
        },
        {
          "internalType": "bool",
          "name": "_isSuccess",
          "type": "bool"
        }
      ],
      "payable": false,
      "stateMutability": "nonpayable",
      "type": "function"
    },
    {
      "constant": true,
      "inputs": [
        {
          "internalType": "bytes32",
          "name": "_dataID",
          "type": "bytes32"
        },
        {
          "internalType": "bytes32",
          "name": "_requesterID",
          "type": "bytes32"
        }
      ],
      "name": "verifyAuthList",
      "outputs": [
        {
          "internalType": "bool",
          "name": "auth",
          "type": "bool"
        }
      ],
      "payable": false,
      "stateMutability": "view",
      "type": "function"
    },
    {
      "constant": false,
      "inputs": [
        {
          "internalType": "bytes32",
          "name": "_dataID",
          "type": "bytes32"
        },
        {
          "internalType": "uint256",
          "name": "_reqBlockID",
          "type": "uint256"
        },
        {
          "internalType": "bytes32",
          "name": "_quoteRA",
          "type": "bytes32"
        },
        {
          "internalType": "bytes32",
          "name": "_reqBlockHash",
          "type": "bytes32"
        }
      ],
      "name": "accessLogAssertion",
      "outputs": [
        {
          "internalType": "uint256",
          "name": "_assertionBlockID",
          "type": "uint256"
        },
        {
          "internalType": "bool",
          "name": "_isSuccess",
          "type": "bool"
        }
      ],
      "payable": false,
      "stateMutability": "nonpayable",
      "type": "function"
    },
    {
      "constant": true,
      "inputs": [
        {
          "internalType": "uint256",
          "name": "_requestID",
          "type": "uint256"
        }
      ],
      "name": "readAccessLog",
      "outputs": [
        {
          "internalType": "bytes32",
          "name": "_requester",
          "type": "bytes32"
        },
        {
          "internalType": "uint256",
          "name": "_accessTime",
          "type": "uint256"
        },
        {
          "internalType": "bytes32",
          "name": "_dataID",
          "type": "bytes32"
        },
        {
          "internalType": "bool",
          "name": "_isSuccess",
          "type": "bool"
        }
      ],
      "payable": false,
      "stateMutability": "view",
      "type": "function"
    }
  ],
  "bytecode": "0x608060405234801561001057600080fd5b506107a2806100206000396000f3fe608060405234801561001057600080fd5b50600436106100575760003560e01c8063131ff19d1461005c578063363a5f98146100a15780637e37ef5414610170578063e92066cf146101b8578063eea4e155146101e7575b600080fd5b6100796004803603602081101561007257600080fd5b503561020a565b6040805194855260208501939093528383019190915215156060830152519081900360800190f35b61015c600480360360a08110156100b757600080fd5b81359160208101359160408201359160608101359181019060a0810160808201356401000000008111156100ea57600080fd5b8201836020820111156100fc57600080fd5b8035906020019184602083028401116401000000008311171561011e57600080fd5b9190808060200260200160405190810160405280939291908181526020018383602002808284376000920191909152509295506102e2945050505050565b604080519115158252519081900360200190f35b61019f6004803603608081101561018657600080fd5b5080359060208101359060408101359060600135610390565b6040805192835290151560208301528051918290030190f35b61019f600480360360808110156101ce57600080fd5b50803590602081013590604081013590606001356104d5565b61015c600480360360408110156101fd57600080fd5b50803590602001356105d5565b600081815260036020526040812054819081908190610270576040805162461bcd60e51b815260206004820152601960248201527f72657175657374494420646f6573206e6f742065786973742100000000000000604482015290519081900360640190fd5b610278610683565b5050506000928352505060036020818152604092839020835160c0810185528154808252600183015493820184905260028301549582019590955292810154606084015260048101546080840181905260059091015460ff16151560a09093018390529293909190565b60006102ec6106b8565b506040805160808101825286815260208082018781528284018781526060840187815260008c81526001808652969020855181559251958301959095555160028201559251805192938493909261034a9260038501929101906106de565b5050604080516001815290518992507fb17e770e9c51cb0bf15c686b9f34c74d58b38cb5d389c8b569814f64a93a29be9181900360200190a25060019695505050505050565b60008381526001602052604081205481906103eb576040805162461bcd60e51b815260206004820152601660248201527564617461494420646f6573206e6f742065786973747360501b604482015290519081900360640190fd5b60006103f786886105d5565b151560011415610405575060015b61040d610683565b506040805160c081018252888152602080820189815282840189815260608401898152426080860190815287151560a0870181815243600281815560009182526003808a52918b90208a518155975160018901559551878701559351938601939093559051600485015590516005909301805460ff19169315159390931790925554845190815291820152825191927fb83e0cc87a2eec632405e55795d902f720f957eb12fdc451f0e5cc921db2be0892918290030190a15060025497909650945050505050565b6000808285401461052d576040805162461bcd60e51b815260206004820152601c60248201527f4163636573732072657175657374206973206e6f742076616c69642100000000604482015290519081900360640190fd5b610535610729565b5060408051608081018252878152602080820188815282840188815260608401888152436004818155600091825260058652908790208651815593516001808601919091559251600285015590516003909301929092559054845190815291820152825191927fc6e1292b8d2f8e2d8b9c7c0769908384c1910777e93544056c1bf0eace3b9c6c92918290030190a1505060025495600195509350505050565b6000828152600160209081526040808320600301805482518185028101850190935280835260609383018282801561062c57602002820191906000526020600020905b815481526020019060010190808311610618575b50939450600093505050505b815181101561067657600082828151811061064f57fe5b602002602001015190508481141561066d576001935050505061067d565b50600101610638565b5060009150505b92915050565b6040805160c081018252600080825260208201819052918101829052606081018290526080810182905260a081019190915290565b604080516080810182526000808252602082018190529181019190915260608082015290565b828054828255906000526020600020908101928215610719579160200282015b828111156107195782518255916020019190600101906106fe565b50610725929150610750565b5090565b60408051608081018252600080825260208201819052918101829052606081019190915290565b61076a91905b808211156107255760008155600101610756565b9056fea265627a7a72315820a980b64a5726a811b8fa789685e6c040ce06d3120e61e8d2570fc5e08047864d64736f6c63430005100032",
  "source": "pragma solidity >=0.4.22 <0.6.0;\n\ncontract DataEscrow {\n    //define constant: enclave wallet public key hardcoded\n    bytes32 constant enclaveWalletPK = \"d439730b8e59401b9adb42a79f93bd52\";\n\n    // data registration data struct\n    bytes32 dataID;\n    struct EscrowData {\n        bytes32 ownerID;\n        bytes32 pkData;\n        bytes32 quoteRA;\n        bytes32[] authorizedList;\n    }\n    mapping(bytes32 => EscrowData) dataEntry;\n\n    //Requester's access request log data struct\n    uint reqBlockID;\n    struct AccessRequest {\n        bytes32 requesterID;\n        bytes32 dataID;\n        bytes32 JWT;\n        bytes32 reqWalletPK;\n        uint accessTime;\n        bool isSuccess;\n    }\n    mapping(uint => AccessRequest) accessLog;\n\n    //SGX access log assertion data struct\n    uint assertionBlockID;\n    struct AccessAssertion {\n        bytes32 dataID;\n        uint reqBlockID;\n        bytes32 quoteRA;\n        bytes32 reqBlockHash;\n    }\n    mapping(uint => AccessAssertion) enclaveVerified;\n\n    event AddData(bytes32 indexed _dataID, bool success);\n    event AddAccess(uint _reqBlockID, bool _isSuccess);\n    event AttestAccessLog(uint _assertionBlockID, bool _isSuccess);\n\n    function addDataEntry(\n        bytes32 _dataID,\n        bytes32 _ownerID,\n        bytes32 _pkData,\n        bytes32 _quoteRA,\n        bytes32[] memory _authorizedList\n    ) public returns (bool success) {\n        EscrowData memory owner = EscrowData(\n            _ownerID,\n            _pkData,\n            _quoteRA,\n            _authorizedList\n        );\n        dataEntry[_dataID] = owner;\n        emit AddData(_dataID, true);\n        return true;\n    }\n\n    function addAccessRequest(\n        bytes32 _requesterID,\n        bytes32 _dataID,\n        bytes32 _JWT,\n        bytes32 _reqWalletPK\n    ) public returns (uint _reqBlockID, bool _isSuccess) {\n        //check if the dataID is valid\n        require(dataEntry[_dataID].ownerID != 0, \"dataID does not exists\");\n        bool accessAllow = false;\n        //verify requester is in ACL\n        if (verifyAuthList(_dataID, _requesterID) == true) {\n            // add accessAllow success if the requester is authorized\n            accessAllow = true;\n        }\n        AccessRequest memory access = AccessRequest(\n            _requesterID,\n            _dataID,\n            _JWT,\n            _reqWalletPK,\n            now,\n            accessAllow\n        );\n        reqBlockID = block.number;\n        accessLog[reqBlockID] = access;\n        emit AddAccess(reqBlockID, accessAllow);\n        return (reqBlockID, accessAllow);\n    }\n\n    function verifyAuthList(\n        bytes32 _dataID,\n        bytes32 _requesterID\n    ) public view returns (bool auth) {\n        // getAuthList\n        bytes32[] memory authList = dataEntry[_dataID].authorizedList;\n        // verify if request is in authList\n        for (uint i = 0; i < authList.length; i++) {\n            bytes32 authID = authList[i];\n            if (authID == _requesterID) {\n                return true; //mathed\n            }\n        }\n        return false; //no match\n    }\n\n    function accessLogAssertion(\n        bytes32 _dataID,\n        uint _reqBlockID,\n        bytes32 _quoteRA,\n        bytes32 _reqBlockHash\n    ) public returns (uint _assertionBlockID, bool _isSuccess) {\n        //obtain blockhash with block ID and compare the hash sent by proxy\n        require(\n            blockhash(_reqBlockID) == _reqBlockHash,\n            \"Access request is not valid!\"\n        );\n        //Add attestation\n        AccessAssertion memory assertion = AccessAssertion(\n            _dataID,\n            _reqBlockID,\n            _quoteRA,\n            _reqBlockHash\n        );\n        assertionBlockID = block.number;\n        enclaveVerified[assertionBlockID] = assertion;\n        emit AttestAccessLog(assertionBlockID, true);\n        return (reqBlockID, true);\n    }\n\n    function readAccessLog(\n        uint _requestID\n    )\n        public\n        view\n        returns (\n            bytes32 _requester,\n            uint _accessTime,\n            bytes32 _dataID,\n            bool _isSuccess\n        )\n    {\n        //check if requestID exists\n        if (accessLog[_requestID].requesterID == 0) {\n            revert(\"requestID does not exist!\");\n        }\n        // get AccessRequest stuct\n        AccessRequest memory access = accessLog[_requestID];\n        return (\n            access.requesterID,\n            access.accessTime,\n            access.dataID,\n            access.isSuccess\n        );\n    }\n}\n",
  "sourcePath": "/home/azureuser/testSample/contracts/DataEscrow.sol",
  "compiler": {
    "name": "solc",
    "version": "0.5.16+commit.9c3226ce.Emscripten.clang"
  },
  "schemaVersion": "3.4.16",
  "updatedAt": "2024-06-02T15:07:06.477Z",
  "networkType": "ethereum",
  "devdoc": {
    "methods": {}
  },
  "userdoc": {
    "methods": {}
  }
}